{
  "contractName": "ReslabEtsit",
  "abi": [
    {
      "inputs": [],
      "stateMutability": "nonpayable",
      "type": "constructor"
    },
    {
      "inputs": [
        {
          "internalType": "uint256",
          "name": "",
          "type": "uint256"
        }
      ],
      "name": "asignaturasRegistradas",
      "outputs": [
        {
          "internalType": "string",
          "name": "nombre",
          "type": "string"
        },
        {
          "internalType": "uint256",
          "name": "indexLab",
          "type": "uint256"
        },
        {
          "internalType": "string",
          "name": "info",
          "type": "string"
        }
      ],
      "stateMutability": "view",
      "type": "function",
      "constant": true
    },
    {
      "inputs": [
        {
          "internalType": "address",
          "name": "",
          "type": "address"
        },
        {
          "internalType": "string",
          "name": "",
          "type": "string"
        },
        {
          "internalType": "uint256",
          "name": "",
          "type": "uint256"
        }
      ],
      "name": "contadorCredito",
      "outputs": [
        {
          "internalType": "uint256",
          "name": "",
          "type": "uint256"
        }
      ],
      "stateMutability": "view",
      "type": "function",
      "constant": true
    },
    {
      "inputs": [
        {
          "internalType": "address",
          "name": "",
          "type": "address"
        }
      ],
      "name": "datosAlumno",
      "outputs": [
        {
          "internalType": "string",
          "name": "nombre",
          "type": "string"
        },
        {
          "internalType": "string",
          "name": "email",
          "type": "string"
        },
        {
          "internalType": "string",
          "name": "asignaturasMatriculadas",
          "type": "string"
        }
      ],
      "stateMutability": "view",
      "type": "function",
      "constant": true
    },
    {
      "inputs": [
        {
          "internalType": "address",
          "name": "",
          "type": "address"
        }
      ],
      "name": "datosProfesor",
      "outputs": [
        {
          "internalType": "string",
          "name": "nombreP",
          "type": "string"
        },
        {
          "internalType": "string",
          "name": "emailP",
          "type": "string"
        },
        {
          "internalType": "string",
          "name": "asignaturaP",
          "type": "string"
        },
        {
          "internalType": "string",
          "name": "departamentoP",
          "type": "string"
        },
        {
          "internalType": "string",
          "name": "LaboratorioP",
          "type": "string"
        }
      ],
      "stateMutability": "view",
      "type": "function",
      "constant": true
    },
    {
      "inputs": [
        {
          "internalType": "uint256",
          "name": "",
          "type": "uint256"
        },
        {
          "internalType": "uint256",
          "name": "",
          "type": "uint256"
        }
      ],
      "name": "datosReserva",
      "outputs": [
        {
          "internalType": "address",
          "name": "dirAlumno",
          "type": "address"
        }
      ],
      "stateMutability": "view",
      "type": "function",
      "constant": true
    },
    {
      "inputs": [
        {
          "internalType": "uint256",
          "name": "",
          "type": "uint256"
        },
        {
          "internalType": "uint256",
          "name": "",
          "type": "uint256"
        },
        {
          "internalType": "uint256",
          "name": "",
          "type": "uint256"
        },
        {
          "internalType": "uint256",
          "name": "",
          "type": "uint256"
        }
      ],
      "name": "datosReservaPorLabPuestoFechaTurno",
      "outputs": [
        {
          "internalType": "address",
          "name": "dirAlumno",
          "type": "address"
        }
      ],
      "stateMutability": "view",
      "type": "function",
      "constant": true
    },
    {
      "inputs": [
        {
          "internalType": "uint256",
          "name": "",
          "type": "uint256"
        },
        {
          "internalType": "uint256",
          "name": "",
          "type": "uint256"
        },
        {
          "internalType": "uint256",
          "name": "",
          "type": "uint256"
        }
      ],
      "name": "datosReservaPorLabPuestoTurno",
      "outputs": [
        {
          "internalType": "address",
          "name": "dirAlumno",
          "type": "address"
        }
      ],
      "stateMutability": "view",
      "type": "function",
      "constant": true
    },
    {
      "inputs": [
        {
          "internalType": "uint256",
          "name": "",
          "type": "uint256"
        }
      ],
      "name": "indiceLabPorAsignatura",
      "outputs": [
        {
          "internalType": "uint256",
          "name": "",
          "type": "uint256"
        }
      ],
      "stateMutability": "view",
      "type": "function",
      "constant": true
    },
    {
      "inputs": [
        {
          "internalType": "uint256",
          "name": "",
          "type": "uint256"
        }
      ],
      "name": "laboratoriosRegistrados",
      "outputs": [
        {
          "internalType": "uint256",
          "name": "laboratorioindex",
          "type": "uint256"
        },
        {
          "internalType": "string",
          "name": "nombreL",
          "type": "string"
        },
        {
          "internalType": "string",
          "name": "asignaura",
          "type": "string"
        },
        {
          "internalType": "string",
          "name": "info",
          "type": "string"
        }
      ],
      "stateMutability": "view",
      "type": "function",
      "constant": true
    },
    {
      "inputs": [
        {
          "internalType": "uint256",
          "name": "",
          "type": "uint256"
        }
      ],
      "name": "matriculas",
      "outputs": [
        {
          "internalType": "address",
          "name": "",
          "type": "address"
        }
      ],
      "stateMutability": "view",
      "type": "function",
      "constant": true
    },
    {
      "inputs": [],
      "name": "owner",
      "outputs": [
        {
          "internalType": "address",
          "name": "",
          "type": "address"
        }
      ],
      "stateMutability": "view",
      "type": "function",
      "constant": true
    },
    {
      "inputs": [
        {
          "internalType": "uint256",
          "name": "",
          "type": "uint256"
        }
      ],
      "name": "profesRegistrados",
      "outputs": [
        {
          "internalType": "address",
          "name": "",
          "type": "address"
        }
      ],
      "stateMutability": "view",
      "type": "function",
      "constant": true
    },
    {
      "inputs": [],
      "name": "profesor",
      "outputs": [
        {
          "internalType": "address",
          "name": "",
          "type": "address"
        }
      ],
      "stateMutability": "view",
      "type": "function",
      "constant": true
    },
    {
      "inputs": [
        {
          "internalType": "uint256",
          "name": "",
          "type": "uint256"
        },
        {
          "internalType": "uint256",
          "name": "",
          "type": "uint256"
        }
      ],
      "name": "puestos",
      "outputs": [
        {
          "internalType": "uint256",
          "name": "",
          "type": "uint256"
        }
      ],
      "stateMutability": "view",
      "type": "function",
      "constant": true
    },
    {
      "inputs": [
        {
          "internalType": "uint256",
          "name": "",
          "type": "uint256"
        },
        {
          "internalType": "uint256",
          "name": "",
          "type": "uint256"
        }
      ],
      "name": "puestosDelLaboratorio",
      "outputs": [
        {
          "internalType": "uint256",
          "name": "",
          "type": "uint256"
        }
      ],
      "stateMutability": "view",
      "type": "function",
      "constant": true
    },
    {
      "inputs": [
        {
          "internalType": "uint256",
          "name": "",
          "type": "uint256"
        }
      ],
      "name": "puestosRegistrados",
      "outputs": [
        {
          "internalType": "string",
          "name": "nombre",
          "type": "string"
        },
        {
          "internalType": "uint256",
          "name": "indexlab",
          "type": "uint256"
        }
      ],
      "stateMutability": "view",
      "type": "function",
      "constant": true
    },
    {
      "inputs": [
        {
          "internalType": "uint256",
          "name": "",
          "type": "uint256"
        },
        {
          "internalType": "uint256",
          "name": "",
          "type": "uint256"
        },
        {
          "internalType": "uint256",
          "name": "",
          "type": "uint256"
        }
      ],
      "name": "turnosPorPuesto",
      "outputs": [
        {
          "internalType": "uint256",
          "name": "",
          "type": "uint256"
        }
      ],
      "stateMutability": "view",
      "type": "function",
      "constant": true
    },
    {
      "inputs": [
        {
          "internalType": "uint256",
          "name": "",
          "type": "uint256"
        }
      ],
      "name": "turnosRegistrados",
      "outputs": [
        {
          "internalType": "string",
          "name": "nombre",
          "type": "string"
        },
        {
          "internalType": "uint256",
          "name": "fecha",
          "type": "uint256"
        }
      ],
      "stateMutability": "view",
      "type": "function",
      "constant": true
    },
    {
      "stateMutability": "payable",
      "type": "receive",
      "payable": true
    },
    {
      "inputs": [
        {
          "internalType": "uint256",
          "name": "_indexlab",
          "type": "uint256"
        }
      ],
      "name": "puestosDelLaboratorioLength",
      "outputs": [
        {
          "internalType": "uint256",
          "name": "",
          "type": "uint256"
        }
      ],
      "stateMutability": "view",
      "type": "function",
      "constant": true
    },
    {
      "inputs": [],
      "name": "turnosLength",
      "outputs": [
        {
          "internalType": "uint256",
          "name": "",
          "type": "uint256"
        }
      ],
      "stateMutability": "view",
      "type": "function",
      "constant": true
    },
    {
      "inputs": [
        {
          "internalType": "uint256",
          "name": "_laboratorioindex",
          "type": "uint256"
        }
      ],
      "name": "puestosLaboratorioLength",
      "outputs": [
        {
          "internalType": "uint256",
          "name": "",
          "type": "uint256"
        }
      ],
      "stateMutability": "view",
      "type": "function",
      "constant": true
    },
    {
      "inputs": [],
      "name": "laboratoriosLength",
      "outputs": [
        {
          "internalType": "uint256",
          "name": "",
          "type": "uint256"
        }
      ],
      "stateMutability": "view",
      "type": "function",
      "constant": true
    },
    {
      "inputs": [
        {
          "internalType": "uint256",
          "name": "_laboratorioindex",
          "type": "uint256"
        }
      ],
      "name": "puestosdeLaboratorio",
      "outputs": [
        {
          "internalType": "uint256",
          "name": "",
          "type": "uint256"
        }
      ],
      "stateMutability": "view",
      "type": "function",
      "constant": true
    },
    {
      "inputs": [
        {
          "internalType": "uint256",
          "name": "_puestoId",
          "type": "uint256"
        },
        {
          "internalType": "uint256",
          "name": "_fecha",
          "type": "uint256"
        },
        {
          "internalType": "uint256",
          "name": "_turno",
          "type": "uint256"
        },
        {
          "internalType": "string",
          "name": "_asignatura",
          "type": "string"
        }
      ],
      "name": "guardarReserva",
      "outputs": [],
      "stateMutability": "nonpayable",
      "type": "function"
    },
    {
      "inputs": [
        {
          "internalType": "uint256",
          "name": "_puestoId",
          "type": "uint256"
        },
        {
          "internalType": "uint256",
          "name": "_fecha",
          "type": "uint256"
        },
        {
          "internalType": "uint256",
          "name": "_turno",
          "type": "uint256"
        },
        {
          "internalType": "string",
          "name": "_asignatura",
          "type": "string"
        }
      ],
      "name": "quitarReserva",
      "outputs": [],
      "stateMutability": "nonpayable",
      "type": "function"
    },
    {
      "inputs": [
        {
          "internalType": "uint256",
          "name": "_laboratorioindex",
          "type": "uint256"
        },
        {
          "internalType": "string",
          "name": "_nombreL",
          "type": "string"
        },
        {
          "internalType": "string",
          "name": "_asignaura",
          "type": "string"
        },
        {
          "internalType": "string",
          "name": "_Info",
          "type": "string"
        }
      ],
      "name": "creaLaboratorio",
      "outputs": [
        {
          "internalType": "uint256",
          "name": "",
          "type": "uint256"
        }
      ],
      "stateMutability": "nonpayable",
      "type": "function"
    },
    {
      "inputs": [
        {
          "internalType": "string",
          "name": "_nombreAsig",
          "type": "string"
        },
        {
          "internalType": "uint256",
          "name": "_indexLab",
          "type": "uint256"
        },
        {
          "internalType": "string",
          "name": "_Info",
          "type": "string"
        }
      ],
      "name": "creaAsignatura",
      "outputs": [
        {
          "internalType": "uint256",
          "name": "",
          "type": "uint256"
        }
      ],
      "stateMutability": "nonpayable",
      "type": "function"
    },
    {
      "inputs": [
        {
          "internalType": "string",
          "name": "_NombreP",
          "type": "string"
        },
        {
          "internalType": "uint256",
          "name": "_indexlab",
          "type": "uint256"
        }
      ],
      "name": "creaPuesto",
      "outputs": [
        {
          "internalType": "uint256",
          "name": "",
          "type": "uint256"
        }
      ],
      "stateMutability": "nonpayable",
      "type": "function"
    },
    {
      "inputs": [
        {
          "internalType": "string",
          "name": "_nombre",
          "type": "string"
        },
        {
          "internalType": "uint256",
          "name": "_fecha",
          "type": "uint256"
        }
      ],
      "name": "creaTurno",
      "outputs": [
        {
          "internalType": "uint256",
          "name": "",
          "type": "uint256"
        }
      ],
      "stateMutability": "nonpayable",
      "type": "function"
    },
    {
      "inputs": [],
      "name": "matriculasLength",
      "outputs": [
        {
          "internalType": "uint256",
          "name": "",
          "type": "uint256"
        }
      ],
      "stateMutability": "view",
      "type": "function",
      "constant": true
    },
    {
      "inputs": [],
      "name": "profesRegistradosLength",
      "outputs": [
        {
          "internalType": "uint256",
          "name": "",
          "type": "uint256"
        }
      ],
      "stateMutability": "view",
      "type": "function",
      "constant": true
    },
    {
      "inputs": [],
      "name": "asignaturasRegistradasLength",
      "outputs": [
        {
          "internalType": "uint256",
          "name": "",
          "type": "uint256"
        }
      ],
      "stateMutability": "view",
      "type": "function",
      "constant": true
    },
    {
      "inputs": [
        {
          "internalType": "string",
          "name": "_nombre",
          "type": "string"
        },
        {
          "internalType": "string",
          "name": "_email",
          "type": "string"
        },
        {
          "internalType": "string",
          "name": "_asig",
          "type": "string"
        }
      ],
      "name": "automatricula",
      "outputs": [],
      "stateMutability": "nonpayable",
      "type": "function"
    },
    {
      "inputs": [
        {
          "internalType": "string",
          "name": "_nombreP",
          "type": "string"
        },
        {
          "internalType": "string",
          "name": "_emailP",
          "type": "string"
        },
        {
          "internalType": "string",
          "name": "_asignaturaP",
          "type": "string"
        },
        {
          "internalType": "string",
          "name": "_departamentoP",
          "type": "string"
        },
        {
          "internalType": "string",
          "name": "_laboratorioP",
          "type": "string"
        }
      ],
      "name": "autoRegistro",
      "outputs": [],
      "stateMutability": "nonpayable",
      "type": "function"
    },
    {
      "inputs": [],
      "name": "quienSoy",
      "outputs": [
        {
          "internalType": "string",
          "name": "_nombre",
          "type": "string"
        },
        {
          "internalType": "string",
          "name": "_email",
          "type": "string"
        }
      ],
      "stateMutability": "view",
      "type": "function",
      "constant": true
    },
    {
      "inputs": [],
      "name": "quienSoyP",
      "outputs": [
        {
          "internalType": "string",
          "name": "_nombre",
          "type": "string"
        },
        {
          "internalType": "string",
          "name": "_email",
          "type": "string"
        }
      ],
      "stateMutability": "view",
      "type": "function",
      "constant": true
    },
    {
      "inputs": [
        {
          "internalType": "address",
          "name": "_dir",
          "type": "address"
        }
      ],
      "name": "quienEs",
      "outputs": [
        {
          "internalType": "string",
          "name": "_nombre",
          "type": "string"
        },
        {
          "internalType": "string",
          "name": "_email",
          "type": "string"
        }
      ],
      "stateMutability": "view",
      "type": "function",
      "constant": true
    },
    {
      "inputs": [],
      "name": "miReserva",
      "outputs": [
        {
          "internalType": "string",
          "name": "lab",
          "type": "string"
        }
      ],
      "stateMutability": "view",
      "type": "function",
      "constant": true
    }
  ],
  "bytecode": "0x608060405234801561001057600080fd5b50336000806101000a81548173ffffffffffffffffffffffffffffffffffffffff021916908373ffffffffffffffffffffffffffffffffffffffff1602179055506148d7806100606000396000f3fe6080604052600436106102295760003560e01c80638fa425e711610123578063c7918139116100ab578063df0965761161006f578063df0965761461097d578063ee0e7c4f146109a8578063f0f066ef146109e5578063f83dfff214610a22578063f85c7aeb14610a4b57610269565b8063c79181391461085a578063c88da89e14610897578063cbf23288146108d6578063cdea020914610914578063d4cf859d1461095157610269565b8063b4b4a51f116100f2578063b4b4a51f14610737578063b5daf62c14610762578063bbcc0ae0146107a2578063bcfe45d3146107e0578063c2c639b61461081d57610269565b80638fa425e7146106695780639b71901c146106a65780639e1d8f4b146106cf578063b013bd24146106fa57610269565b80636916662b116101b15780637fa4574d116101755780637fa4574d1461054a578063810e8c801461058757806387972906146105c45780638b69735b146106015780638da5cb5b1461063e57610269565b80636916662b1461044c5780636ad8a0fb146104775780636bf8aad6146104b557806370d714f2146104f457806379b51b6a1461051f57610269565b806344141cb9116101f857806344141cb914610350578063537668831461038d578063589afa22146103b9578063641945bf146103e2578063681d4ca61461042357610269565b806311fe99401461026e578063151b3f5214610299578063296d91db146102d65780633bd205611461031357610269565b36610269576040517f08c379a0000000000000000000000000000000000000000000000000000000008152600401610260906140ad565b60405180910390fd5b600080fd5b34801561027a57600080fd5b50610283610a88565b6040516102909190613e3d565b60405180910390f35b3480156102a557600080fd5b506102c060048036038101906102bb9190613a1c565b610ceb565b6040516102cd9190613e22565b60405180910390f35b3480156102e257600080fd5b506102fd60048036038101906102f89190613961565b610d36565b60405161030a919061418d565b60405180910390f35b34801561031f57600080fd5b5061033a60048036038101906103359190613934565b610edd565b604051610347919061418d565b60405180910390f35b34801561035c57600080fd5b5061037760048036038101906103729190613934565b610efd565b604051610384919061418d565b60405180910390f35b34801561039957600080fd5b506103a2610f15565b6040516103b0929190613e5f565b60405180910390f35b3480156103c557600080fd5b506103e060048036038101906103db9190613aaf565b611177565b005b3480156103ee57600080fd5b5061040960048036038101906104049190613603565b61150f565b60405161041a959493929190613ee2565b60405180910390f35b34801561042f57600080fd5b5061044a6004803603810190610445919061369f565b6117ed565b005b34801561045857600080fd5b506104616119a3565b60405161046e919061418d565b60405180910390f35b34801561048357600080fd5b5061049e60048036038101906104999190613934565b6119b0565b6040516104ac929190613f58565b60405180910390f35b3480156104c157600080fd5b506104dc60048036038101906104d79190613603565b611a6c565b6040516104eb93929190613e96565b60405180910390f35b34801561050057600080fd5b50610509611c2e565b604051610516919061418d565b60405180910390f35b34801561052b57600080fd5b50610534611c3b565b604051610541919061418d565b60405180910390f35b34801561055657600080fd5b50610571600480360381019061056c919061384d565b611c48565b60405161057e919061418d565b60405180910390f35b34801561059357600080fd5b506105ae60048036038101906105a991906138a9565b611da7565b6040516105bb919061418d565b60405180910390f35b3480156105d057600080fd5b506105eb60048036038101906105e69190613a5c565b611f2a565b6040516105f89190613e22565b60405180910390f35b34801561060d57600080fd5b5061062860048036038101906106239190613934565b611f82565b604051610635919061418d565b60405180910390f35b34801561064a57600080fd5b50610653611fa2565b6040516106609190613e22565b60405180910390f35b34801561067557600080fd5b50610690600480360381019061068b9190613a5c565b611fc6565b60405161069d919061418d565b60405180910390f35b3480156106b257600080fd5b506106cd60048036038101906106c89190613746565b612004565b005b3480156106db57600080fd5b506106e4612202565b6040516106f1919061418d565b60405180910390f35b34801561070657600080fd5b50610721600480360381019061071c9190613a1c565b61220f565b60405161072e919061418d565b60405180910390f35b34801561074357600080fd5b5061074c612240565b604051610759919061418d565b60405180910390f35b34801561076e57600080fd5b5061078960048036038101906107849190613934565b61224d565b60405161079994939291906141a8565b60405180910390f35b3480156107ae57600080fd5b506107c960048036038101906107c49190613603565b612425565b6040516107d7929190613e5f565b60405180910390f35b3480156107ec57600080fd5b506108076004803603810190610802919061384d565b612688565b604051610814919061418d565b60405180910390f35b34801561082957600080fd5b50610844600480360381019061083f9190613b32565b612827565b6040516108519190613e22565b60405180910390f35b34801561086657600080fd5b50610881600480360381019061087c9190613934565b61288c565b60405161088e9190613e22565b60405180910390f35b3480156108a357600080fd5b506108be60048036038101906108b99190613934565b6128cb565b6040516108cd93929190613f88565b60405180910390f35b3480156108e257600080fd5b506108fd60048036038101906108f89190613934565b612a15565b60405161090b929190613f58565b60405180910390f35b34801561092057600080fd5b5061093b60048036038101906109369190613a1c565b612ad1565b604051610948919061418d565b60405180910390f35b34801561095d57600080fd5b50610966612b02565b604051610974929190613e5f565b60405180910390f35b34801561098957600080fd5b50610992612e88565b60405161099f9190613e22565b60405180910390f35b3480156109b457600080fd5b506109cf60048036038101906109ca9190613934565b612eae565b6040516109dc9190613e22565b60405180910390f35b3480156109f157600080fd5b50610a0c6004803603810190610a079190613934565b612eed565b604051610a19919061418d565b60405180910390f35b348015610a2e57600080fd5b50610a496004803603810190610a449190613aaf565b612f0d565b005b348015610a5757600080fd5b50610a726004803603810190610a6d9190613630565b6131d2565b604051610a7f919061418d565b60405180910390f35b6060610a933361321a565b610ad2576040517f08c379a0000000000000000000000000000000000000000000000000000000008152600401610ac99061402d565b60405180910390fd5b6000600b60003373ffffffffffffffffffffffffffffffffffffffff1673ffffffffffffffffffffffffffffffffffffffff16815260200190815260200160002060405180608001604052908160008201548152602001600182018054610b389061435b565b80601f0160208091040260200160405190810160405280929190818152602001828054610b649061435b565b8015610bb15780601f10610b8657610100808354040283529160200191610bb1565b820191906000526020600020905b815481529060010190602001808311610b9457829003601f168201915b50505050508152602001600282018054610bca9061435b565b80601f0160208091040260200160405190810160405280929190818152602001828054610bf69061435b565b8015610c435780601f10610c1857610100808354040283529160200191610c43565b820191906000526020600020905b815481529060010190602001808311610c2657829003601f168201915b50505050508152602001600382018054610c5c9061435b565b80601f0160208091040260200160405190810160405280929190818152602001828054610c889061435b565b8015610cd55780601f10610caa57610100808354040283529160200191610cd5565b820191906000526020600020905b815481529060010190602001808311610cb857829003601f168201915b5050505050815250509050806020015191505090565b600e602052816000526040600020602052806000526040600020600091509150508060000160009054906101000a900473ffffffffffffffffffffffffffffffffffffffff16905081565b60008060009054906101000a900473ffffffffffffffffffffffffffffffffffffffff1673ffffffffffffffffffffffffffffffffffffffff163373ffffffffffffffffffffffffffffffffffffffff1614610dc7576040517f08c379a0000000000000000000000000000000000000000000000000000000008152600401610dbe9061416d565b60405180910390fd5b6000849050600081511415610e11576040517f08c379a0000000000000000000000000000000000000000000000000000000008152600401610e08906140ed565b60405180910390fd5b60076040518060800160405280888152602001878152602001868152602001858152509080600181540180825580915050600190039060005260206000209060040201600090919091909150600082015181600001556020820151816001019080519060200190610e839291906134c6565b506040820151816002019080519060200190610ea09291906134c6565b506060820151816003019080519060200190610ebd9291906134c6565b5050506001600780549050610ed2919061427f565b915050949350505050565b6000600d6000838152602001908152602001600020805490509050919050565b60136020528060005260406000206000915090505481565b606080610f213361321a565b610f60576040517f08c379a0000000000000000000000000000000000000000000000000000000008152600401610f579061402d565b60405180910390fd5b6000600260003373ffffffffffffffffffffffffffffffffffffffff1673ffffffffffffffffffffffffffffffffffffffff168152602001908152602001600020604051806060016040529081600082018054610fbc9061435b565b80601f0160208091040260200160405190810160405280929190818152602001828054610fe89061435b565b80156110355780601f1061100a57610100808354040283529160200191611035565b820191906000526020600020905b81548152906001019060200180831161101857829003601f168201915b5050505050815260200160018201805461104e9061435b565b80601f016020809104026020016040519081016040528092919081815260200182805461107a9061435b565b80156110c75780601f1061109c576101008083540402835291602001916110c7565b820191906000526020600020905b8154815290600101906020018083116110aa57829003601f168201915b505050505081526020016002820180546110e09061435b565b80601f016020809104026020016040519081016040528092919081815260200182805461110c9061435b565b80156111595780601f1061112e57610100808354040283529160200191611159565b820191906000526020600020905b81548152906001019060200180831161113c57829003601f168201915b50505050508152505090508060000151925080602001519150509091565b6111803361321a565b80611190575061118f336132fe565b5b806111e6575060008054906101000a900473ffffffffffffffffffffffffffffffffffffffff1673ffffffffffffffffffffffffffffffffffffffff163373ffffffffffffffffffffffffffffffffffffffff16145b611225576040517f08c379a000000000000000000000000000000000000000000000000000000000815260040161121c90613fed565b60405180910390fd5b60188210611268576040517f08c379a000000000000000000000000000000000000000000000000000000000815260040161125f9061412d565b60405180910390fd5b3373ffffffffffffffffffffffffffffffffffffffff16601060008681526020019081526020016000206000858152602001908152602001600020600084815260200190815260200160002060000160009054906101000a900473ffffffffffffffffffffffffffffffffffffffff1673ffffffffffffffffffffffffffffffffffffffff161480611345575060008054906101000a900473ffffffffffffffffffffffffffffffffffffffff1673ffffffffffffffffffffffffffffffffffffffff163373ffffffffffffffffffffffffffffffffffffffff16145b611384576040517f08c379a000000000000000000000000000000000000000000000000000000000815260040161137b9061404d565b60405180910390fd5b6000601060008681526020019081526020016000206000858152602001908152602001600020600084815260200190815260200160002060000160009054906101000a900473ffffffffffffffffffffffffffffffffffffffff1690506040518060200160405280600073ffffffffffffffffffffffffffffffffffffffff16815250601060008781526020019081526020016000206000868152602001908152602001600020600085815260200190815260200160002060008201518160000160006101000a81548173ffffffffffffffffffffffffffffffffffffffff021916908373ffffffffffffffffffffffffffffffffffffffff160217905550905050601160008273ffffffffffffffffffffffffffffffffffffffff1673ffffffffffffffffffffffffffffffffffffffff168152602001908152602001600020826040516114d39190613e0b565b90815260200160405180910390206000858152602001908152602001600020600081548092919061150390614331565b91905055505050505050565b60036020528060005260406000206000915090508060000180546115329061435b565b80601f016020809104026020016040519081016040528092919081815260200182805461155e9061435b565b80156115ab5780601f10611580576101008083540402835291602001916115ab565b820191906000526020600020905b81548152906001019060200180831161158e57829003601f168201915b5050505050908060010180546115c09061435b565b80601f01602080910402602001604051908101604052809291908181526020018280546115ec9061435b565b80156116395780601f1061160e57610100808354040283529160200191611639565b820191906000526020600020905b81548152906001019060200180831161161c57829003601f168201915b50505050509080600201805461164e9061435b565b80601f016020809104026020016040519081016040528092919081815260200182805461167a9061435b565b80156116c75780601f1061169c576101008083540402835291602001916116c7565b820191906000526020600020905b8154815290600101906020018083116116aa57829003601f168201915b5050505050908060030180546116dc9061435b565b80601f01602080910402602001604051908101604052809291908181526020018280546117089061435b565b80156117555780601f1061172a57610100808354040283529160200191611755565b820191906000526020600020905b81548152906001019060200180831161173857829003601f168201915b50505050509080600401805461176a9061435b565b80601f01602080910402602001604051908101604052809291908181526020018280546117969061435b565b80156117e35780601f106117b8576101008083540402835291602001916117e3565b820191906000526020600020905b8154815290600101906020018083116117c657829003601f168201915b5050505050905085565b6117f63361321a565b15611836576040517f08c379a000000000000000000000000000000000000000000000000000000000815260040161182d90613fed565b60405180910390fd5b6000839050600081511415611880576040517f08c379a00000000000000000000000000000000000000000000000000000000081526004016118779061400d565b60405180910390fd5b6000604051806060016040528086815260200185815260200184815250905080600260003373ffffffffffffffffffffffffffffffffffffffff1673ffffffffffffffffffffffffffffffffffffffff16815260200190815260200160002060008201518160000190805190602001906118fb9291906134c6565b5060208201518160010190805190602001906119189291906134c6565b5060408201518160020190805190602001906119359291906134c6565b509050506004339080600181540180825580915050600190039060005260206000200160009091909190916101000a81548173ffffffffffffffffffffffffffffffffffffffff021916908373ffffffffffffffffffffffffffffffffffffffff1602179055505050505050565b6000600980549050905090565b600981815481106119c057600080fd5b90600052602060002090600202016000915090508060000180546119e39061435b565b80601f0160208091040260200160405190810160405280929190818152602001828054611a0f9061435b565b8015611a5c5780601f10611a3157610100808354040283529160200191611a5c565b820191906000526020600020905b815481529060010190602001808311611a3f57829003601f168201915b5050505050908060010154905082565b6002602052806000526040600020600091509050806000018054611a8f9061435b565b80601f0160208091040260200160405190810160405280929190818152602001828054611abb9061435b565b8015611b085780601f10611add57610100808354040283529160200191611b08565b820191906000526020600020905b815481529060010190602001808311611aeb57829003601f168201915b505050505090806001018054611b1d9061435b565b80601f0160208091040260200160405190810160405280929190818152602001828054611b499061435b565b8015611b965780601f10611b6b57610100808354040283529160200191611b96565b820191906000526020600020905b815481529060010190602001808311611b7957829003601f168201915b505050505090806002018054611bab9061435b565b80601f0160208091040260200160405190810160405280929190818152602001828054611bd79061435b565b8015611c245780601f10611bf957610100808354040283529160200191611c24565b820191906000526020600020905b815481529060010190602001808311611c0757829003601f168201915b5050505050905083565b6000600680549050905090565b6000600580549050905090565b60008060009054906101000a900473ffffffffffffffffffffffffffffffffffffffff1673ffffffffffffffffffffffffffffffffffffffff163373ffffffffffffffffffffffffffffffffffffffff1614611cd9576040517f08c379a0000000000000000000000000000000000000000000000000000000008152600401611cd09061416d565b60405180910390fd5b6000839050600081511415611d23576040517f08c379a0000000000000000000000000000000000000000000000000000000008152600401611d1a9061414d565b60405180910390fd5b600960405180604001604052808681526020018581525090806001815401808255809150506001900390600052602060002090600202016000909190919091506000820151816000019080519060200190611d7f9291906134c6565b506020820151816001015550506001600980549050611d9e919061427f565b91505092915050565b60008060009054906101000a900473ffffffffffffffffffffffffffffffffffffffff1673ffffffffffffffffffffffffffffffffffffffff163373ffffffffffffffffffffffffffffffffffffffff1614611e38576040517f08c379a0000000000000000000000000000000000000000000000000000000008152600401611e2f9061416d565b60405180910390fd5b6000849050600081511415611e82576040517f08c379a0000000000000000000000000000000000000000000000000000000008152600401611e799061408d565b60405180910390fd5b600660405180606001604052808781526020018681526020018581525090806001815401808255809150506001900390600052602060002090600302016000909190919091506000820151816000019080519060200190611ee49291906134c6565b50602082015181600101556040820151816002019080519060200190611f0b9291906134c6565b5050506001600680549050611f20919061427f565b9150509392505050565b601060205282600052604060002060205281600052604060002060205280600052604060002060009250925050508060000160009054906101000a900473ffffffffffffffffffffffffffffffffffffffff16905081565b600060126000838152602001908152602001600020805490509050919050565b60008054906101000a900473ffffffffffffffffffffffffffffffffffffffff1681565b60156020528260005260406000206020528160005260406000208181548110611fee57600080fd5b9060005260206000200160009250925050505481565b61200d336132fe565b1561204d576040517f08c379a0000000000000000000000000000000000000000000000000000000008152600401612044906140cd565b60405180910390fd5b6000859050600081511415612097576040517f08c379a000000000000000000000000000000000000000000000000000000000815260040161208e9061400d565b60405180910390fd5b60006040518060a0016040528088815260200187815260200186815260200185815260200184815250905080600360003373ffffffffffffffffffffffffffffffffffffffff1673ffffffffffffffffffffffffffffffffffffffff168152602001908152602001600020600082015181600001908051906020019061211e9291906134c6565b50602082015181600101908051906020019061213b9291906134c6565b5060408201518160020190805190602001906121589291906134c6565b5060608201518160030190805190602001906121759291906134c6565b5060808201518160040190805190602001906121929291906134c6565b509050506005339080600181540180825580915050600190039060005260206000200160009091909190916101000a81548173ffffffffffffffffffffffffffffffffffffffff021916908373ffffffffffffffffffffffffffffffffffffffff16021790555050505050505050565b6000600480549050905090565b6012602052816000526040600020818154811061222b57600080fd5b90600052602060002001600091509150505481565b6000600780549050905090565b6007818154811061225d57600080fd5b90600052602060002090600402016000915090508060000154908060010180546122869061435b565b80601f01602080910402602001604051908101604052809291908181526020018280546122b29061435b565b80156122ff5780601f106122d4576101008083540402835291602001916122ff565b820191906000526020600020905b8154815290600101906020018083116122e257829003601f168201915b5050505050908060020180546123149061435b565b80601f01602080910402602001604051908101604052809291908181526020018280546123409061435b565b801561238d5780601f106123625761010080835404028352916020019161238d565b820191906000526020600020905b81548152906001019060200180831161237057829003601f168201915b5050505050908060030180546123a29061435b565b80601f01602080910402602001604051908101604052809291908181526020018280546123ce9061435b565b801561241b5780601f106123f05761010080835404028352916020019161241b565b820191906000526020600020905b8154815290600101906020018083116123fe57829003601f168201915b5050505050905084565b6060806124313361321a565b612470576040517f08c379a00000000000000000000000000000000000000000000000000000000081526004016124679061402d565b60405180910390fd5b6000600260008573ffffffffffffffffffffffffffffffffffffffff1673ffffffffffffffffffffffffffffffffffffffff1681526020019081526020016000206040518060600160405290816000820180546124cc9061435b565b80601f01602080910402602001604051908101604052809291908181526020018280546124f89061435b565b80156125455780601f1061251a57610100808354040283529160200191612545565b820191906000526020600020905b81548152906001019060200180831161252857829003601f168201915b5050505050815260200160018201805461255e9061435b565b80601f016020809104026020016040519081016040528092919081815260200182805461258a9061435b565b80156125d75780601f106125ac576101008083540402835291602001916125d7565b820191906000526020600020905b8154815290600101906020018083116125ba57829003601f168201915b505050505081526020016002820180546125f09061435b565b80601f016020809104026020016040519081016040528092919081815260200182805461261c9061435b565b80156126695780601f1061263e57610100808354040283529160200191612669565b820191906000526020600020905b81548152906001019060200180831161264c57829003601f168201915b5050505050815250509050806000015192508060200151915050915091565b60008060009054906101000a900473ffffffffffffffffffffffffffffffffffffffff1673ffffffffffffffffffffffffffffffffffffffff163373ffffffffffffffffffffffffffffffffffffffff1614612719576040517f08c379a00000000000000000000000000000000000000000000000000000000081526004016127109061416d565b60405180910390fd5b6000839050600081511415612763576040517f08c379a000000000000000000000000000000000000000000000000000000000815260040161275a906140ed565b60405180910390fd5b6008604051806040016040528086815260200185815250908060018154018082558091505060019003906000526020600020906002020160009091909190915060008201518160000190805190602001906127bf9291906134c6565b50602082015181600101555050600060016008805490506127e0919061427f565b905060126000858152602001908152602001600020819080600181540180825580915050600190039060005260206000200160009091909190915055809250505092915050565b600f6020528360005260406000206020528260005260406000206020528160005260406000206020528060005260406000206000935093505050508060000160009054906101000a900473ffffffffffffffffffffffffffffffffffffffff16905081565b6004818154811061289c57600080fd5b906000526020600020016000915054906101000a900473ffffffffffffffffffffffffffffffffffffffff1681565b600681815481106128db57600080fd5b90600052602060002090600302016000915090508060000180546128fe9061435b565b80601f016020809104026020016040519081016040528092919081815260200182805461292a9061435b565b80156129775780601f1061294c57610100808354040283529160200191612977565b820191906000526020600020905b81548152906001019060200180831161295a57829003601f168201915b5050505050908060010154908060020180546129929061435b565b80601f01602080910402602001604051908101604052809291908181526020018280546129be9061435b565b8015612a0b5780601f106129e057610100808354040283529160200191612a0b565b820191906000526020600020905b8154815290600101906020018083116129ee57829003601f168201915b5050505050905083565b60088181548110612a2557600080fd5b9060005260206000209060020201600091509050806000018054612a489061435b565b80601f0160208091040260200160405190810160405280929190818152602001828054612a749061435b565b8015612ac15780601f10612a9657610100808354040283529160200191612ac1565b820191906000526020600020905b815481529060010190602001808311612aa457829003601f168201915b5050505050908060010154905082565b600d6020528160005260406000208181548110612aed57600080fd5b90600052602060002001600091509150505481565b606080612b0e336132fe565b612b4d576040517f08c379a0000000000000000000000000000000000000000000000000000000008152600401612b449061406d565b60405180910390fd5b6000600360003373ffffffffffffffffffffffffffffffffffffffff1673ffffffffffffffffffffffffffffffffffffffff1681526020019081526020016000206040518060a0016040529081600082018054612ba99061435b565b80601f0160208091040260200160405190810160405280929190818152602001828054612bd59061435b565b8015612c225780601f10612bf757610100808354040283529160200191612c22565b820191906000526020600020905b815481529060010190602001808311612c0557829003601f168201915b50505050508152602001600182018054612c3b9061435b565b80601f0160208091040260200160405190810160405280929190818152602001828054612c679061435b565b8015612cb45780601f10612c8957610100808354040283529160200191612cb4565b820191906000526020600020905b815481529060010190602001808311612c9757829003601f168201915b50505050508152602001600282018054612ccd9061435b565b80601f0160208091040260200160405190810160405280929190818152602001828054612cf99061435b565b8015612d465780601f10612d1b57610100808354040283529160200191612d46565b820191906000526020600020905b815481529060010190602001808311612d2957829003601f168201915b50505050508152602001600382018054612d5f9061435b565b80601f0160208091040260200160405190810160405280929190818152602001828054612d8b9061435b565b8015612dd85780601f10612dad57610100808354040283529160200191612dd8565b820191906000526020600020905b815481529060010190602001808311612dbb57829003601f168201915b50505050508152602001600482018054612df19061435b565b80601f0160208091040260200160405190810160405280929190818152602001828054612e1d9061435b565b8015612e6a5780601f10612e3f57610100808354040283529160200191612e6a565b820191906000526020600020905b815481529060010190602001808311612e4d57829003601f168201915b50505050508152505090508060000151925080602001519150509091565b600160009054906101000a900473ffffffffffffffffffffffffffffffffffffffff1681565b60058181548110612ebe57600080fd5b906000526020600020016000915054906101000a900473ffffffffffffffffffffffffffffffffffffffff1681565b6000600d6000838152602001908152602001600020805490509050919050565b612f163361321a565b80612f265750612f25336132fe565b5b612f65576040517f08c379a0000000000000000000000000000000000000000000000000000000008152600401612f5c90613fed565b60405180910390fd5b60188210612fa8576040517f08c379a0000000000000000000000000000000000000000000000000000000008152600401612f9f9061412d565b60405180910390fd5b612fb1336133e2565b15612ff1576040517f08c379a0000000000000000000000000000000000000000000000000000000008152600401612fe89061410d565b60405180910390fd5b6003601160003373ffffffffffffffffffffffffffffffffffffffff1673ffffffffffffffffffffffffffffffffffffffff168152602001908152602001600020826040516130409190613e0b565b9081526020016040518091039020600085815260200190815260200160002054106130a0576040517f08c379a000000000000000000000000000000000000000000000000000000000815260040161309790613fcd565b60405180910390fd5b600060405180602001604052803373ffffffffffffffffffffffffffffffffffffffff16815250905080601060008781526020019081526020016000206000868152602001908152602001600020600085815260200190815260200160002060008201518160000160006101000a81548173ffffffffffffffffffffffffffffffffffffffff021916908373ffffffffffffffffffffffffffffffffffffffff160217905550905050601160003373ffffffffffffffffffffffffffffffffffffffff1673ffffffffffffffffffffffffffffffffffffffff168152602001908152602001600020826040516131969190613e0b565b9081526020016040518091039020600085815260200190815260200160002060008154809291906131c6906143be565b91905055505050505050565b60116020528260005260406000208280516020810182018051848252602083016020850120818352809550505050505060205280600052604060002060009250925050505481565b600080600260008473ffffffffffffffffffffffffffffffffffffffff1673ffffffffffffffffffffffffffffffffffffffff168152602001908152602001600020600001805461326a9061435b565b80601f01602080910402602001604051908101604052809291908181526020018280546132969061435b565b80156132e35780601f106132b8576101008083540402835291602001916132e3565b820191906000526020600020905b8154815290600101906020018083116132c657829003601f168201915b50505050509050600081905060008151141592505050919050565b600080600360008473ffffffffffffffffffffffffffffffffffffffff1673ffffffffffffffffffffffffffffffffffffffff168152602001908152602001600020600001805461334e9061435b565b80601f016020809104026020016040519081016040528092919081815260200182805461337a9061435b565b80156133c75780601f1061339c576101008083540402835291602001916133c7565b820191906000526020600020905b8154815290600101906020018083116133aa57829003601f168201915b50505050509050600081905060008151141592505050919050565b600080600c60008473ffffffffffffffffffffffffffffffffffffffff1673ffffffffffffffffffffffffffffffffffffffff16815260200190815260200160002060000180546134329061435b565b80601f016020809104026020016040519081016040528092919081815260200182805461345e9061435b565b80156134ab5780601f10613480576101008083540402835291602001916134ab565b820191906000526020600020905b81548152906001019060200180831161348e57829003601f168201915b50505050509050600081905060008151141592505050919050565b8280546134d29061435b565b90600052602060002090601f0160209004810192826134f4576000855561353b565b82601f1061350d57805160ff191683800117855561353b565b8280016001018555821561353b579182015b8281111561353a57825182559160200191906001019061351f565b5b509050613548919061354c565b5090565b5b8082111561356557600081600090555060010161354d565b5090565b600061357c61357784614227565b614202565b90508281526020810184848401111561359857613597614499565b5b6135a38482856142ef565b509392505050565b6000813590506135ba81614873565b92915050565b600082601f8301126135d5576135d4614494565b5b81356135e5848260208601613569565b91505092915050565b6000813590506135fd8161488a565b92915050565b600060208284031215613619576136186144a3565b5b6000613627848285016135ab565b91505092915050565b600080600060608486031215613649576136486144a3565b5b6000613657868287016135ab565b935050602084013567ffffffffffffffff8111156136785761367761449e565b5b613684868287016135c0565b9250506040613695868287016135ee565b9150509250925092565b6000806000606084860312156136b8576136b76144a3565b5b600084013567ffffffffffffffff8111156136d6576136d561449e565b5b6136e2868287016135c0565b935050602084013567ffffffffffffffff8111156137035761370261449e565b5b61370f868287016135c0565b925050604084013567ffffffffffffffff8111156137305761372f61449e565b5b61373c868287016135c0565b9150509250925092565b600080600080600060a08688031215613762576137616144a3565b5b600086013567ffffffffffffffff8111156137805761377f61449e565b5b61378c888289016135c0565b955050602086013567ffffffffffffffff8111156137ad576137ac61449e565b5b6137b9888289016135c0565b945050604086013567ffffffffffffffff8111156137da576137d961449e565b5b6137e6888289016135c0565b935050606086013567ffffffffffffffff8111156138075761380661449e565b5b613813888289016135c0565b925050608086013567ffffffffffffffff8111156138345761383361449e565b5b613840888289016135c0565b9150509295509295909350565b60008060408385031215613864576138636144a3565b5b600083013567ffffffffffffffff8111156138825761388161449e565b5b61388e858286016135c0565b925050602061389f858286016135ee565b9150509250929050565b6000806000606084860312156138c2576138c16144a3565b5b600084013567ffffffffffffffff8111156138e0576138df61449e565b5b6138ec868287016135c0565b93505060206138fd868287016135ee565b925050604084013567ffffffffffffffff81111561391e5761391d61449e565b5b61392a868287016135c0565b9150509250925092565b60006020828403121561394a576139496144a3565b5b6000613958848285016135ee565b91505092915050565b6000806000806080858703121561397b5761397a6144a3565b5b6000613989878288016135ee565b945050602085013567ffffffffffffffff8111156139aa576139a961449e565b5b6139b6878288016135c0565b935050604085013567ffffffffffffffff8111156139d7576139d661449e565b5b6139e3878288016135c0565b925050606085013567ffffffffffffffff811115613a0457613a0361449e565b5b613a10878288016135c0565b91505092959194509250565b60008060408385031215613a3357613a326144a3565b5b6000613a41858286016135ee565b9250506020613a52858286016135ee565b9150509250929050565b600080600060608486031215613a7557613a746144a3565b5b6000613a83868287016135ee565b9350506020613a94868287016135ee565b9250506040613aa5868287016135ee565b9150509250925092565b60008060008060808587031215613ac957613ac86144a3565b5b6000613ad7878288016135ee565b9450506020613ae8878288016135ee565b9350506040613af9878288016135ee565b925050606085013567ffffffffffffffff811115613b1a57613b1961449e565b5b613b26878288016135c0565b91505092959194509250565b60008060008060808587031215613b4c57613b4b6144a3565b5b6000613b5a878288016135ee565b9450506020613b6b878288016135ee565b9350506040613b7c878288016135ee565b9250506060613b8d878288016135ee565b91505092959194509250565b613ba2816142b3565b82525050565b6000613bb382614258565b613bbd8185614263565b9350613bcd8185602086016142fe565b613bd6816144a8565b840191505092915050565b6000613bec82614258565b613bf68185614274565b9350613c068185602086016142fe565b80840191505092915050565b6000613c1f602a83614263565b9150613c2a826144b9565b604082019050919050565b6000613c42602883614263565b9150613c4d82614508565b604082019050919050565b6000613c65601c83614263565b9150613c7082614557565b602082019050919050565b6000613c88602583614263565b9150613c9382614580565b604082019050919050565b6000613cab601c83614263565b9150613cb6826145cf565b602082019050919050565b6000613cce602383614263565b9150613cd9826145f8565b604082019050919050565b6000613cf1602783614263565b9150613cfc82614647565b604082019050919050565b6000613d14602583614263565b9150613d1f82614696565b604082019050919050565b6000613d37602683614263565b9150613d42826146e5565b604082019050919050565b6000613d5a602483614263565b9150613d6582614734565b604082019050919050565b6000613d7d602f83614263565b9150613d8882614783565b604082019050919050565b6000613da0600e83614263565b9150613dab826147d2565b602082019050919050565b6000613dc3602a83614263565b9150613dce826147fb565b604082019050919050565b6000613de6601783614263565b9150613df18261484a565b602082019050919050565b613e05816142e5565b82525050565b6000613e178284613be1565b915081905092915050565b6000602082019050613e376000830184613b99565b92915050565b60006020820190508181036000830152613e578184613ba8565b905092915050565b60006040820190508181036000830152613e798185613ba8565b90508181036020830152613e8d8184613ba8565b90509392505050565b60006060820190508181036000830152613eb08186613ba8565b90508181036020830152613ec48185613ba8565b90508181036040830152613ed88184613ba8565b9050949350505050565b600060a0820190508181036000830152613efc8188613ba8565b90508181036020830152613f108187613ba8565b90508181036040830152613f248186613ba8565b90508181036060830152613f388185613ba8565b90508181036080830152613f4c8184613ba8565b90509695505050505050565b60006040820190508181036000830152613f728185613ba8565b9050613f816020830184613dfc565b9392505050565b60006060820190508181036000830152613fa28186613ba8565b9050613fb16020830185613dfc565b8181036040830152613fc38184613ba8565b9050949350505050565b60006020820190508181036000830152613fe681613c12565b9050919050565b6000602082019050818103600083015261400681613c35565b9050919050565b6000602082019050818103600083015261402681613c58565b9050919050565b6000602082019050818103600083015261404681613c7b565b9050919050565b6000602082019050818103600083015261406681613c9e565b9050919050565b6000602082019050818103600083015261408681613cc1565b9050919050565b600060208201905081810360008301526140a681613ce4565b9050919050565b600060208201905081810360008301526140c681613d07565b9050919050565b600060208201905081810360008301526140e681613d2a565b9050919050565b6000602082019050818103600083015261410681613d4d565b9050919050565b6000602082019050818103600083015261412681613d70565b9050919050565b6000602082019050818103600083015261414681613d93565b9050919050565b6000602082019050818103600083015261416681613db6565b9050919050565b6000602082019050818103600083015261418681613dd9565b9050919050565b60006020820190506141a26000830184613dfc565b92915050565b60006080820190506141bd6000830187613dfc565b81810360208301526141cf8186613ba8565b905081810360408301526141e38185613ba8565b905081810360608301526141f78184613ba8565b905095945050505050565b600061420c61421d565b9050614218828261438d565b919050565b6000604051905090565b600067ffffffffffffffff82111561424257614241614465565b5b61424b826144a8565b9050602081019050919050565b600081519050919050565b600082825260208201905092915050565b600081905092915050565b600061428a826142e5565b9150614295836142e5565b9250828210156142a8576142a7614407565b5b828203905092915050565b60006142be826142c5565b9050919050565b600073ffffffffffffffffffffffffffffffffffffffff82169050919050565b6000819050919050565b82818337600083830152505050565b60005b8381101561431c578082015181840152602081019050614301565b8381111561432b576000848401525b50505050565b600061433c826142e5565b915060008214156143505761434f614407565b5b600182039050919050565b6000600282049050600182168061437357607f821691505b6020821081141561438757614386614436565b5b50919050565b614396826144a8565b810181811067ffffffffffffffff821117156143b5576143b4614465565b5b80604052505050565b60006143c9826142e5565b91507fffffffffffffffffffffffffffffffffffffffffffffffffffffffffffffffff8214156143fc576143fb614407565b5b600182019050919050565b7f4e487b7100000000000000000000000000000000000000000000000000000000600052601160045260246000fd5b7f4e487b7100000000000000000000000000000000000000000000000000000000600052602260045260246000fd5b7f4e487b7100000000000000000000000000000000000000000000000000000000600052604160045260246000fd5b600080fd5b600080fd5b600080fd5b600080fd5b6000601f19601f8301169050919050565b7f736520686120657863656469646f20656c206e756d65726f206d6178696d6f2060008201527f6465206372656469746f00000000000000000000000000000000000000000000602082015250565b7f536f6c6f207065726d697469646f206120616c756d6e6f73206e6f206d61747260008201527f6963756c61646f73000000000000000000000000000000000000000000000000602082015250565b7f456c206e6f6d627265206e6f2070756564652073657220766163696f00000000600082015250565b7f536f6c6f207065726d697469646f206120616c756d6e6f73206d61747269637560008201527f6c61646f73000000000000000000000000000000000000000000000000000000602082015250565b7f6c612072657365727661206573206465206f74726f20616c756d6e6f00000000600082015250565b7f536f6c6f207065726d697469646f20612070726f66657320726567697374726160008201527f646f730000000000000000000000000000000000000000000000000000000000602082015250565b7f456c206e6f6d627265206465206c612061736967206e6f20707565646520736560008201527f7220766163696f00000000000000000000000000000000000000000000000000602082015250565b7f4e6f207365207065726d697465206c6120726563657063696f6e20646520646960008201527f6e65726f2e000000000000000000000000000000000000000000000000000000602082015250565b7f536f6c6f207065726d697469646f20612070726f666573206e6f20726567697360008201527f747261646f730000000000000000000000000000000000000000000000000000602082015250565b7f456c206e6f6d6272652064656c206c6162206e6f20707565646520736572207660008201527f6163696f00000000000000000000000000000000000000000000000000000000602082015250565b7f536f6c6f207065726d697469646f2061207475726e6f7320717565206e6f206560008201527f7374656e2072657365727661646f730000000000000000000000000000000000602082015250565b7f5475726e6f20696e76616c69646f000000000000000000000000000000000000600082015250565b7f456c206e6f6d627265206465206c61207475726e6f206e6f207075656465206560008201527f7374617220766163696f00000000000000000000000000000000000000000000602082015250565b7f536f6c6f207065726d697469646f20616c206f776e6572000000000000000000600082015250565b61487c816142b3565b811461488757600080fd5b50565b614893816142e5565b811461489e57600080fd5b5056fea26469706673582212201af963c692fce10dddd504cee5fb3aaa599e588c171fa38c8bc87985bf6d8e6b64736f6c63430008070033",
  "immutableReferences": {},
  "source": "    \r\n    \r\n    \r\npragma solidity ^0.8.7;\r\n\r\n\r\ncontract ReslabEtsit {\r\n    \r\n   \r\n    /**\r\n     * address del profesor y owner\r\n     * \r\n     */\r\n    address public owner;\r\n    address public profesor;\r\n     \r\n    \r\n \r\n\r\n    \r\n    \r\n   \r\n     /**\r\n     * Datos de los puestos del laboratorio\r\n     * \r\n     */\r\n    \r\n    struct DatosPuesto {\r\n\r\n\r\n    \r\n\tstring nombre;\r\n\t\r\n\tuint indexlab;\r\n\r\n       \r\n    }\r\n    \r\n    /**\r\n     * Datos de los turnos del laboratorio\r\n     * \r\n     */\r\n\r\n    struct DatosTurno{\r\n        string nombre;\r\n        uint fecha;\r\n      \r\n    }\r\n    \r\n    \r\n    /**\r\n     * Datos del laboratorio\r\n     * \r\n     */\r\n\r\n    struct DatosLaboratorio {\r\n        uint laboratorioindex;\r\n        \r\n        string nombreL;\r\n        string asignaura;\r\n        string info;\r\n        \r\n        \r\n       \r\n    }\r\n\r\n\r\n\r\n\r\n    /**\r\n     * Datos del alumno\r\n     * \r\n     */\r\n    struct DatosAlumno {\r\n        string nombre;\r\n        string email;\r\n        string asignaturasMatriculadas;\r\n        \r\n    }\r\n    \r\n    /**\r\n     * Datos del profesor\r\n     * \r\n     */\r\n    \r\n    struct DatosProfesor{\r\n        string nombreP;\r\n        string emailP;\r\n        string asignaturaP;\r\n        string departamentoP;\r\n        string LaboratorioP;\r\n    }\r\n    \r\n    \r\n\r\n\r\n    /**\r\n     * Datos de la asignatura\r\n     * \r\n     */\r\n\r\n\r\n    \r\n    struct DatosAsignatura{\r\n        string nombre;\r\n       \r\n        uint indexLab;\r\n        string info;\r\n        \r\n        \r\n    }\r\n    \r\n     /**\r\n     * Contador de un crdito diario\r\n     * \r\n     */\r\n\r\n    struct CreditoDiario {\r\n        uint creditoDiario;\r\n    }\r\n    \r\n    \r\n    /**\r\n     * \r\n\r\n     Datos de la reserva de un usuario\r\n     * */\r\n     \r\n     struct DatosReserva{\r\n         address dirAlumno;\r\n      \r\n     }\r\n     \r\n\r\n      \r\n\r\n    \r\n    /// Acceder a los datos de un alumno dada su direccion.\r\n    mapping (address => DatosAlumno) public datosAlumno;\r\n\r\n    \r\n      /// Acceder a los datos de un profe dada su direccion.\r\n    mapping (address => DatosProfesor) public datosProfesor;\r\n    \r\n\r\n    //array con las direcciones de los alumnos matriculados \r\n    address[] public matriculas;\r\n    \r\n    \r\n    //array con las direcciones de los profes registrados \r\n    address[] public profesRegistrados;\r\n\r\n    \r\n    \r\n    //array con la asignaturas registradas\r\n\r\n    DatosAsignatura[] public asignaturasRegistradas;\r\n    \r\n    \r\n    //array con los laboratorios registrados\r\n    DatosLaboratorio[] public laboratoriosRegistrados;\r\n   \r\n\r\n    //array con los  puestos en la escuela\r\n    DatosPuesto[] public puestosRegistrados;\r\n    \r\n \r\n\r\n    // array  turnos de los puestos\r\n\r\n    DatosTurno[] public turnosRegistrados;\r\n        \r\n    mapping (address => DatosAsignatura)  datosAsignatura;\r\n    \r\n    \r\n    mapping (address => DatosLaboratorio)  datosLaboratorio;\r\n\r\n    mapping (address => DatosTurno)  datosTurno;\r\n\r\n\r\n    \r\n\r\n\r\n\r\n\r\n    \r\n    // devuelve array con los indices de los puestos y la clave es un array de enteros laboratorio \r\n    mapping (uint=> uint[]) public puestos;\r\n\r\n\r\n\r\n\r\n    \r\n    //dado el numero puesto, turno (numero de milisegundos) ,  te devuelva la reserva\r\n   mapping( uint =>mapping (uint=> DatosReserva )) public datosReserva;\r\n\r\n\r\n   \r\n    //dado el numero lab, de un puesto, fecha (numero de milisegundos) ,  y turno te devuelva la reserva\r\n\r\n     mapping( uint =>mapping (uint=> mapping (uint=> mapping (uint=> DatosReserva )))) public datosReservaPorLabPuestoFechaTurno;\r\n\r\n     //dado el numero lab, de un puesto,  y turno te devuelva la reserva\r\n\r\n     mapping( uint =>mapping (uint=>  mapping (uint=> DatosReserva ))) public datosReservaPorLabPuestoTurno;\r\n\r\n\r\n\r\n     // dado la direcion de un alumno , una asignatura y un dia  te da un contador de reservas que lleva\r\n\r\n     mapping( address=>mapping (string=>mapping (uint => uint)))  public contadorCredito;\r\n\r\n\r\n\r\n    //dado el indice de laboratorio un array de los indices de los puestos que estan en ese laboratorio \r\n    mapping(uint=> uint[]) public puestosDelLaboratorio;\r\n\r\n\r\n\r\n    //dado el indice de una asignatura te devuelve el indice de un lab \r\n    mapping(uint => uint) public indiceLabPorAsignatura;\r\n\r\n \r\n\r\n\r\n    //dado el index de un puesto registrado \r\n    //dada la fecha ( string en formaro YYYYYMMD??????\r\n    // dado la hora del turno (de 0 a 23) \r\n    //devuelve el address del alumnos que ha reservado el turno\r\n    mapping(uint => mapping(uint => mapping (uint=> address))) reservasDelAlumno;\r\n\r\n\r\n    /// Dado el index de un puesto y una fecha te devuelve los turnos de un lab .\r\n    mapping (uint => mapping (uint  => uint[] )) public turnosPorPuesto;\r\n\r\n    \r\n    \r\n    \r\n    \r\n    /*\r\n     * Constructor.\r\n     * \r\n     * owner despligega el contrato\r\n     * \r\n    \r\n     */\r\n\r\n    \r\n    constructor()  {\r\n        owner = msg.sender;\r\n    } \r\n\r\n    \r\n    \r\n    \r\n    \r\n    \r\n\r\n\r\n    //Devuelve la longitud de los puestos que hay en un laboratorio \r\n\r\n    function puestosDelLaboratorioLength(uint _indexlab) public view returns(uint) {\r\n        return puestosDelLaboratorio[_indexlab].length;\r\n\r\n\r\n    }\r\n\r\n\r\n\r\n  /**\r\n     * Te devuelve el numero de turnos\r\n     *\r\n     * @return El numero de turnos creadas.\r\n     */\r\n\r\n    function turnosLength() public view returns(uint) {\r\n        return turnosRegistrados.length;\r\n    }\r\n    \r\n\r\n    //devuelve la longitud del array de los puestos de un laboratorio \r\n    function puestosLaboratorioLength(uint _laboratorioindex) public view returns(uint) {\r\n        return puestos[_laboratorioindex].length;\r\n    }\r\n    \r\n    \r\n     /**\r\n     * El numero de labs  registrados\r\n     *\r\n     * @return El numero de labs creadas.\r\n     */\r\n    function laboratoriosLength() public view returns(uint) {\r\n        return laboratoriosRegistrados.length;\r\n    }\r\n    \r\n    \r\n\r\n\r\n\r\n\r\n\r\n\r\n    //puestos que hay en un lab. Coger el array que te da el mapping de puestos y devolver su .length\r\n\r\n    function puestosdeLaboratorio(uint _laboratorioindex) public view returns(uint) {\r\n\r\n        return puestos[_laboratorioindex].length;\r\n    }\r\n    \r\n\r\n\r\n\r\n \r\n\r\n\r\n\r\n    /** Funcin reservar - cualquier usuario que este registrado en la plataforma\r\n    * Parametros: puesto, fecha, turno y asignatura\r\n    */\r\n\r\n    \r\n    \r\n    \r\n\r\n        function guardarReserva(uint  _puestoId, uint  _fecha,  uint _turno, string memory _asignatura)  public {\r\n        \r\n\t\r\n       \r\n            require(estaMatriculado(msg.sender) || estaRegistrado(msg.sender),\"Solo permitido a alumnos no matriculados\");\r\n            require(_turno<24, \"Turno invalido\");\r\n            require(!estaReservado(msg.sender),\"Solo permitido a turnos que no esten reservados\");\r\n            require(contadorCredito[msg.sender][_asignatura][_fecha]<3, \"se ha excedido el numero maximo de credito\");\r\n\r\n     \r\n  \r\n\r\n            DatosReserva memory reserva = DatosReserva(msg.sender);\r\n            \r\n\r\n            datosReservaPorLabPuestoTurno[_puestoId][_fecha][_turno]= reserva;\r\n            contadorCredito[msg.sender][_asignatura][_fecha]++;\r\n            \r\n\r\n\r\n        }\r\n\r\n        \r\n    /** Funcion anular una reserva- cualquier usuario que este registrado en la plataforma\r\n    *Parametros: puesto, fecha, turno y asignatura\r\n    * El owner puede anular cualquier reserva\r\n    */\r\n\r\n\r\n       function quitarReserva(uint  _puestoId, uint  _fecha,  uint _turno,  string memory _asignatura)  public {\r\n        \r\n\t\r\n       \r\n\r\n            \r\n            require(estaMatriculado(msg.sender) || estaRegistrado(msg.sender) || msg.sender == owner,\"Solo permitido a alumnos no matriculados\");\r\n\r\n            require(_turno<24, \"Turno invalido\");\r\n           \r\n            require(datosReservaPorLabPuestoTurno[_puestoId][_fecha][_turno].dirAlumno==msg.sender  ||  msg.sender == owner, \"la reserva es de otro alumno\");\r\n            \r\n            address direccionAlumno = datosReservaPorLabPuestoTurno[_puestoId][_fecha][_turno].dirAlumno;\r\n            datosReservaPorLabPuestoTurno[_puestoId][_fecha][_turno]= DatosReserva(address(0x0));\r\n            \r\n            \r\n            contadorCredito[direccionAlumno][_asignatura][_fecha]--;\r\n\r\n        }\r\n     \r\n  \r\n    \r\n\r\n\r\n\r\n\r\n\r\n\r\n\r\n\r\n\r\n\r\n\r\n\r\n\r\n    \r\n    \r\n\r\n    \r\n    \r\n    \r\n    \r\n        \r\n     //Crea un laboratorio \r\n\r\n    function creaLaboratorio( uint  _laboratorioindex,string memory _nombreL,string memory _asignaura,string memory _Info) soloOwner public returns (uint) {\r\n        \r\n        bytes memory bn = bytes(_nombreL);\r\n        require(bn.length != 0, \"El nombre del lab no puede ser vacio\");\r\n        \r\n        laboratoriosRegistrados.push(DatosLaboratorio(_laboratorioindex,_nombreL,_asignaura,_Info));\r\n        return laboratoriosRegistrados.length - 1;\r\n    }\r\n    \r\n     // Crea una asignatura \r\n\r\n    function creaAsignatura( string memory _nombreAsig, uint _indexLab,string memory _Info)  soloOwner public returns (uint) {\r\n        \r\n        bytes memory bn = bytes(_nombreAsig);\r\n        require(bn.length != 0, \"El nombre de la asig no puede ser vacio\");\r\n        \r\n       asignaturasRegistradas.push(DatosAsignatura(_nombreAsig,_indexLab,_Info));\r\n        return asignaturasRegistradas.length - 1;\r\n    }\r\n    \r\n    \r\n    \r\n    \r\n    //Crea un puesto \r\n\r\n    function creaPuesto(string memory _NombreP,uint  _indexlab) soloOwner public returns (uint) {\r\n        \r\n        bytes memory bn = bytes(_NombreP);\r\n        require(bn.length != 0, \"El nombre del lab no puede ser vacio\");\r\n        \r\n        puestosRegistrados.push(DatosPuesto(_NombreP,_indexlab));\r\n        uint id = puestosRegistrados.length -1;\r\n\r\n        puestosDelLaboratorio[_indexlab].push(id);\r\n\r\n        return id;\r\n    \r\n    }   \r\n\r\n\r\n    //Crea un turno de laboratorio \r\n\r\n    function creaTurno(string memory _nombre, uint _fecha) soloOwner public returns (uint) {\r\n    \r\n    bytes memory bn = bytes(_nombre);\r\n    require(bn.length != 0, \"El nombre de la turno no puede estar vacio\");\r\n    \r\n    turnosRegistrados.push(DatosTurno(_nombre, _fecha));\r\n    return turnosRegistrados.length - 1;\r\n} \r\n    \r\n \r\n     /**\r\n     * El numero de alumnos matriculados.\r\n     *\r\n     * @return El numero de alumnos matriculados.\r\n     */\r\n    function matriculasLength() public view returns(uint) {\r\n        return matriculas.length;\r\n    }\r\n    \r\n    \r\n    \r\n      /**\r\n     * El numero de profes registrados.\r\n     *\r\n     * .\r\n     */\r\n    function profesRegistradosLength() public view returns(uint) {\r\n        return profesRegistrados.length;\r\n    }\r\n    \r\n    \r\n       /**\r\n     * El numero de asignaturas registrados.\r\n     *\r\n     * .\r\n     */\r\n    function asignaturasRegistradasLength() public view returns(uint) {\r\n        return asignaturasRegistradas.length;\r\n    }\r\n    \r\n    \r\n\r\n    /**\r\n     * Los alumnos se matriculan con el metodo automatricula.\r\n     * \r\n     * Impedir que se pueda meter un nombre vacio.\r\n     *\r\n     * @param _nombre El nombre del alumno. \r\n     * @param _email  El email del alumno.\r\n     */\r\n    function automatricula(string memory _nombre, string memory _email,string memory _asig) noMatriculados public {\r\n        //revert(\"siempre falla\");\r\n        bytes memory b = bytes(_nombre);\r\n        require(b.length != 0, \"El nombre no puede ser vacio\");\r\n        \r\n        DatosAlumno memory datos = DatosAlumno(_nombre, _email,_asig);\r\n        \r\n        datosAlumno[msg.sender] = datos;\r\n        \r\n        matriculas.push(msg.sender);\r\n        \r\n    }\r\n    \r\n    \r\n    /**\r\n     * Los profes se registran con el metodo autoRegistro.\r\n     * \r\n     * Impedir que se pueda meter un nombre vacio.\r\n     *\r\n     * @param _nombreP El nombre del profe. \r\n     * @param _emailP  El email del profe.\r\n    * @param _asignaturaP El nombre del profe. \r\n     * @param _departamentoP  El email del profe.\r\n     *@param _laboratorioP  El email del profe.\r\n     */\r\n\r\n    \r\n    \r\n  \r\n    function autoRegistro(string memory _nombreP, string memory _emailP,string memory _asignaturaP,string memory _departamentoP, string memory _laboratorioP ) noRegistrados public {\r\n        \r\n        bytes memory b = bytes(_nombreP);\r\n        require(b.length != 0, \"El nombre no puede ser vacio\");\r\n        \r\n        DatosProfesor memory datosP = DatosProfesor(_nombreP, _emailP,_asignaturaP,_departamentoP,_laboratorioP);\r\n        \r\n        datosProfesor[msg.sender] = datosP;\r\n        \r\n       profesRegistrados.push(msg.sender);\r\n        \r\n    }\r\n    \r\n\r\n\r\n\r\n    \r\n    \r\n    \r\n    \r\n    \r\n    \r\n    \r\n    \r\n    \r\n    \r\n    /**\r\n     * Permite a un alumno obtener sus propios datos.\r\n     * \r\n     * @return _nombre El nombre del alumno que invoca el metodo.\r\n     * @return _email  El email del alumno que invoca el metodo.\r\n     */\r\n    function quienSoy() soloMatriculados public view returns (string memory _nombre, string memory _email) {\r\n        DatosAlumno memory datos = datosAlumno[msg.sender];\r\n        _nombre = datos.nombre;\r\n        _email = datos.email;\r\n    }\r\n\r\n   /**\r\n     * Permite a un profe obtener sus propios datos.\r\n     * \r\n     * @return _nombre El nombre del profe que invoca el metodo.\r\n     * @return _email  El email del profe que invoca el metodo.\r\n     */\r\n\r\n    function quienSoyP() soloRegistrados public view returns (string memory _nombre, string memory _email) {\r\n        DatosProfesor memory datos = datosProfesor[msg.sender];\r\n        _nombre = datos.nombreP;\r\n        _email = datos.emailP;\r\n    }\r\n    \r\n\r\n   /**\r\n     * Permite saber datos address.\r\n     * \r\n   \r\n     */\r\n    function quienEs(address _dir) soloMatriculados public view returns (string memory _nombre, string memory _email) {\r\n        DatosAlumno memory datos = datosAlumno[_dir];\r\n        _nombre = datos.nombre;\r\n        _email = datos.email;\r\n    }\r\n    \r\n      \r\n       /**\r\n     * ddevuelve el lab reservado por el alumno, turno y puesto\r\n     * \r\n    \r\n     * \r\n     \r\n     */ \r\n\r\n      function miReserva()  soloMatriculados public view returns (string memory lab) {\r\n        \r\n        DatosLaboratorio  memory nombrelab = datosLaboratorio[msg.sender];\r\n        \r\n       \r\n        lab = nombrelab.nombreL;\r\n       \r\n        \r\n    }\r\n    \r\n\r\n    \r\n    \r\n    /**\r\n     * Consulta si una direccion pertenece a un alumno matriculado.\r\n     * \r\n     * @param alumno La direccion de un alumno.\r\n     * \r\n     * @return true si es una alumno matriculado.\r\n     */\r\n    function estaMatriculado(address alumno) private view returns (bool) {\r\n      \r\n        string memory _nombre = datosAlumno[alumno].nombre;\r\n        \r\n        bytes memory b = bytes(_nombre);\r\n        \r\n        return b.length != 0;\r\n    } \r\n\r\n       /**\r\n     * Consulta si un turno pertenece a un alumno matriculado.\r\n     * \r\n     * @param alumno La direccion de un alumno.\r\n     * \r\n     * @return true si es una alumno matriculado.\r\n     */\r\n\r\n\r\n       function estaReservado(address alumno) private view returns (bool) {\r\n      \r\n        string memory _nombre = datosTurno[alumno].nombre;\r\n        \r\n        bytes memory b = bytes(_nombre);\r\n        \r\n        return b.length != 0;\r\n    }\r\n    \r\n\r\n\r\n     /**\r\n     * Consulta si una direccion pertenece a un profe registrado.\r\n     * \r\n     * \r\n     */\r\n    \r\n       function estaRegistrado(address _profesor) private view returns (bool) {\r\n      \r\n        string memory _nombreP = datosProfesor[_profesor].nombreP;\r\n        \r\n        bytes memory b = bytes(_nombreP);\r\n        \r\n        return b.length != 0;\r\n    }\r\n\r\n\r\n    \r\n\r\n   \r\n\r\n\r\n\r\n\r\n    /**\r\n     * Modificador para que una funcion solo la pueda ejecutar el profesor.\r\n     * \r\n     *\r\n     */\r\n\r\n    modifier soloOwner() {\r\n        \r\n        require(msg.sender == owner, \"Solo permitido al owner\");\r\n        _;\r\n    }\r\n    \r\n    \r\n    /**\r\n     * Modificador para que una funcion solo la pueda ejecutar el profesor.\r\n     * \r\n     *\r\n     */\r\n    modifier soloProfesor() {\r\n        \r\n        require(msg.sender == profesor, \"Solo permitido al profesor\");\r\n        _;\r\n    }\r\n    \r\n    \r\n    /**\r\n     * Modificador para que una funcion solo la pueda ejecutar un alumno matriculado.\r\n     */\r\n    modifier soloMatriculados() {\r\n        \r\n        require(estaMatriculado(msg.sender), \"Solo permitido a alumnos matriculados\");\r\n        _;\r\n    }\r\n\r\n\r\n        \r\n    /**\r\n     * Modificador para que una funcion solo la pueda ejecutar un alumno matriculado.\r\n     */\r\n    modifier soloMatriculadosyOwner() {\r\n        \r\n        require(estaMatriculado(msg.sender) || msg.sender == owner, \"Solo permitido a alumnos owner matriculados\");\r\n        _;\r\n    }\r\n    \r\n    /**\r\n     * Modificador para que una funcion solo la pueda ejecutar el profesor.\r\n     * \r\n     *\r\n     */\r\n\r\n    \r\n      modifier soloRegistrados() {\r\n        \r\n        require(estaRegistrado(msg.sender), \"Solo permitido a profes registrados\");\r\n        _;\r\n    }\r\n    \r\n    \r\n \r\n    /**\r\n     * Modificador para que una funcion solo la pueda ejecutar un alumno no matriculado aun.\r\n     */\r\n    modifier noMatriculados() {\r\n        \r\n        require(!estaMatriculado(msg.sender), \"Solo permitido a alumnos no matriculados\");\r\n        _;\r\n    }\r\n    \r\n    /**\r\n     * Modificador para que una funcion solo la pueda ejecutar un profe no matriculado aun.\r\n     * \r\n     *\r\n     */\r\n\r\n    \r\n      modifier noRegistrados() {\r\n        \r\n        require(!estaRegistrado(msg.sender), \"Solo permitido a profes no registrados\");\r\n        _;\r\n    }\r\n    \r\n\r\n    \r\n       receive() external payable {\r\n        revert(\"No se permite la recepcion de dinero.\");\r\n    }\r\n}\r\n",
  "sourcePath": "C:\\Users\\huert\\TrabajoFinalReservas\\truffle\\contracts\\ReslabEtsit.sol",
  "compiler": {
    "name": "solc",
    "version": "0.8.7+commit.e28d00a7.Emscripten.clang"
  },
  "schemaVersion": "3.4.11",
  "updatedAt": "2023-01-10T19:29:54.526Z",
  "networkType": "ethereum",
  "devdoc": {
    "kind": "dev",
    "methods": {
      "autoRegistro(string,string,string,string,string)": {
        "params": {
          "_asignaturaP": "El nombre del profe. ",
          "_departamentoP": "El email del profe.",
          "_emailP": "El email del profe.",
          "_laboratorioP": "El email del profe.",
          "_nombreP": "El nombre del profe. "
        }
      },
      "automatricula(string,string,string)": {
        "params": {
          "_email": "El email del alumno.",
          "_nombre": "El nombre del alumno. "
        }
      },
      "laboratoriosLength()": {
        "returns": {
          "_0": "El numero de labs creadas."
        }
      },
      "matriculasLength()": {
        "returns": {
          "_0": "El numero de alumnos matriculados."
        }
      },
      "quienSoy()": {
        "returns": {
          "_email": " El email del alumno que invoca el metodo.",
          "_nombre": "El nombre del alumno que invoca el metodo."
        }
      },
      "quienSoyP()": {
        "returns": {
          "_email": " El email del profe que invoca el metodo.",
          "_nombre": "El nombre del profe que invoca el metodo."
        }
      },
      "turnosLength()": {
        "returns": {
          "_0": "El numero de turnos creadas."
        }
      }
    },
    "version": 1
  },
  "userdoc": {
    "kind": "user",
    "methods": {
      "asignaturasRegistradasLength()": {
        "notice": "El numero de asignaturas registrados. ."
      },
      "autoRegistro(string,string,string,string,string)": {
        "notice": "Los profes se registran con el metodo autoRegistro.  Impedir que se pueda meter un nombre vacio."
      },
      "automatricula(string,string,string)": {
        "notice": "Los alumnos se matriculan con el metodo automatricula.  Impedir que se pueda meter un nombre vacio."
      },
      "datosAlumno(address)": {
        "notice": "Acceder a los datos de un alumno dada su direccion."
      },
      "datosProfesor(address)": {
        "notice": "Acceder a los datos de un profe dada su direccion."
      },
      "guardarReserva(uint256,uint256,uint256,string)": {
        "notice": "Funcin reservar - cualquier usuario que este registrado en la plataforma Parametros: puesto, fecha, turno y asignatura"
      },
      "laboratoriosLength()": {
        "notice": "El numero de labs  registrados"
      },
      "matriculasLength()": {
        "notice": "El numero de alumnos matriculados."
      },
      "miReserva()": {
        "notice": "ddevuelve el lab reservado por el alumno, turno y puesto  "
      },
      "owner()": {
        "notice": "address del profesor y owner "
      },
      "profesRegistradosLength()": {
        "notice": "El numero de profes registrados. ."
      },
      "quienEs(address)": {
        "notice": "Permite saber datos address. "
      },
      "quienSoy()": {
        "notice": "Permite a un alumno obtener sus propios datos. "
      },
      "quienSoyP()": {
        "notice": "Permite a un profe obtener sus propios datos. "
      },
      "quitarReserva(uint256,uint256,uint256,string)": {
        "notice": "Funcion anular una reserva- cualquier usuario que este registrado en la plataforma Parametros: puesto, fecha, turno y asignatura El owner puede anular cualquier reserva"
      },
      "turnosLength()": {
        "notice": "Te devuelve el numero de turnos"
      },
      "turnosPorPuesto(uint256,uint256,uint256)": {
        "notice": "Dado el index de un puesto y una fecha te devuelve los turnos de un lab ."
      }
    },
    "version": 1
  }
}